{
  "abi": [
    {
      "inputs": [
        {
          "internalType": "address",
          "name": "_token",
          "type": "address"
        },
        {
          "internalType": "uint256",
          "name": "_max_balance",
          "type": "uint256"
        },
        {
          "internalType": "uint256",
          "name": "_withdrawal_delay",
          "type": "uint256"
        }
      ],
      "stateMutability": "nonpayable",
      "type": "constructor"
    },
    {
      "inputs": [],
      "name": "AccessControlBadConfirmation",
      "type": "error"
    },
    {
      "inputs": [
        {
          "internalType": "address",
          "name": "account",
          "type": "address"
        },
        {
          "internalType": "bytes32",
          "name": "neededRole",
          "type": "bytes32"
        }
      ],
      "name": "AccessControlUnauthorizedAccount",
      "type": "error"
    },
    {
      "anonymous": false,
      "inputs": [
        {
          "indexed": true,
          "internalType": "address",
          "name": "user",
          "type": "address"
        },
        {
          "indexed": false,
          "internalType": "uint256",
          "name": "currentBalance",
          "type": "uint256"
        }
      ],
      "name": "BalanceUpdate",
      "type": "event"
    },
    {
      "anonymous": false,
      "inputs": [
        {
          "indexed": true,
          "internalType": "uint256",
          "name": "matchId",
          "type": "uint256"
        },
        {
          "indexed": false,
          "internalType": "address",
          "name": "winner",
          "type": "address"
        },
        {
          "indexed": false,
          "internalType": "address",
          "name": "otherPlayer",
          "type": "address"
        },
        {
          "indexed": false,
          "internalType": "uint256",
          "name": "payout",
          "type": "uint256"
        },
        {
          "indexed": false,
          "internalType": "uint256",
          "name": "fee",
          "type": "uint256"
        }
      ],
      "name": "GameUpdate",
      "type": "event"
    },
    {
      "anonymous": false,
      "inputs": [
        {
          "indexed": true,
          "internalType": "address",
          "name": "user",
          "type": "address"
        }
      ],
      "name": "PlayerUpdate",
      "type": "event"
    },
    {
      "anonymous": false,
      "inputs": [
        {
          "indexed": true,
          "internalType": "bytes32",
          "name": "role",
          "type": "bytes32"
        },
        {
          "indexed": true,
          "internalType": "bytes32",
          "name": "previousAdminRole",
          "type": "bytes32"
        },
        {
          "indexed": true,
          "internalType": "bytes32",
          "name": "newAdminRole",
          "type": "bytes32"
        }
      ],
      "name": "RoleAdminChanged",
      "type": "event"
    },
    {
      "anonymous": false,
      "inputs": [
        {
          "indexed": true,
          "internalType": "bytes32",
          "name": "role",
          "type": "bytes32"
        },
        {
          "indexed": true,
          "internalType": "address",
          "name": "account",
          "type": "address"
        },
        {
          "indexed": true,
          "internalType": "address",
          "name": "sender",
          "type": "address"
        }
      ],
      "name": "RoleGranted",
      "type": "event"
    },
    {
      "anonymous": false,
      "inputs": [
        {
          "indexed": true,
          "internalType": "bytes32",
          "name": "role",
          "type": "bytes32"
        },
        {
          "indexed": true,
          "internalType": "address",
          "name": "account",
          "type": "address"
        },
        {
          "indexed": true,
          "internalType": "address",
          "name": "sender",
          "type": "address"
        }
      ],
      "name": "RoleRevoked",
      "type": "event"
    },
    {
      "inputs": [],
      "name": "DEFAULT_ADMIN_ROLE",
      "outputs": [
        {
          "internalType": "bytes32",
          "name": "",
          "type": "bytes32"
        }
      ],
      "stateMutability": "view",
      "type": "function"
    },
    {
      "inputs": [],
      "name": "DOMAIN_SEPARATOR",
      "outputs": [
        {
          "internalType": "bytes32",
          "name": "",
          "type": "bytes32"
        }
      ],
      "stateMutability": "view",
      "type": "function"
    },
    {
      "inputs": [],
      "name": "STAKE_TYPEHASH",
      "outputs": [
        {
          "internalType": "bytes32",
          "name": "",
          "type": "bytes32"
        }
      ],
      "stateMutability": "view",
      "type": "function"
    },
    {
      "inputs": [],
      "name": "TXN_SUBMITTER_ROLE",
      "outputs": [
        {
          "internalType": "bytes32",
          "name": "",
          "type": "bytes32"
        }
      ],
      "stateMutability": "view",
      "type": "function"
    },
    {
      "inputs": [],
      "name": "WITHDRAW_TYPEHASH",
      "outputs": [
        {
          "internalType": "bytes32",
          "name": "",
          "type": "bytes32"
        }
      ],
      "stateMutability": "view",
      "type": "function"
    },
    {
      "inputs": [
        {
          "internalType": "address",
          "name": "",
          "type": "address"
        }
      ],
      "name": "balances",
      "outputs": [
        {
          "internalType": "uint256",
          "name": "",
          "type": "uint256"
        }
      ],
      "stateMutability": "view",
      "type": "function"
    },
    {
      "inputs": [
        {
          "internalType": "uint256",
          "name": "amount",
          "type": "uint256"
        }
      ],
      "name": "depositToken",
      "outputs": [],
      "stateMutability": "nonpayable",
      "type": "function"
    },
    {
      "inputs": [
        {
          "internalType": "bytes32",
          "name": "role",
          "type": "bytes32"
        }
      ],
      "name": "getRoleAdmin",
      "outputs": [
        {
          "internalType": "bytes32",
          "name": "",
          "type": "bytes32"
        }
      ],
      "stateMutability": "view",
      "type": "function"
    },
    {
      "inputs": [
        {
          "internalType": "bytes32",
          "name": "role",
          "type": "bytes32"
        },
        {
          "internalType": "address",
          "name": "account",
          "type": "address"
        }
      ],
      "name": "grantRole",
      "outputs": [],
      "stateMutability": "nonpayable",
      "type": "function"
    },
    {
      "inputs": [
        {
          "internalType": "bytes32",
          "name": "role",
          "type": "bytes32"
        },
        {
          "internalType": "address",
          "name": "account",
          "type": "address"
        }
      ],
      "name": "hasRole",
      "outputs": [
        {
          "internalType": "bool",
          "name": "",
          "type": "bool"
        }
      ],
      "stateMutability": "view",
      "type": "function"
    },
    {
      "inputs": [],
      "name": "initiateWithdrawal",
      "outputs": [],
      "stateMutability": "nonpayable",
      "type": "function"
    },
    {
      "inputs": [],
      "name": "max_balance",
      "outputs": [
        {
          "internalType": "uint256",
          "name": "",
          "type": "uint256"
        }
      ],
      "stateMutability": "view",
      "type": "function"
    },
    {
      "inputs": [
        {
          "internalType": "address",
          "name": "",
          "type": "address"
        }
      ],
      "name": "nonces",
      "outputs": [
        {
          "internalType": "uint256",
          "name": "",
          "type": "uint256"
        }
      ],
      "stateMutability": "view",
      "type": "function"
    },
    {
      "inputs": [
        {
          "components": [
            {
              "internalType": "address",
              "name": "user",
              "type": "address"
            },
            {
              "internalType": "uint256",
              "name": "nonce",
              "type": "uint256"
            },
            {
              "internalType": "uint256",
              "name": "expiry",
              "type": "uint256"
            },
            {
              "internalType": "uint256",
              "name": "amount",
              "type": "uint256"
            },
            {
              "internalType": "uint256",
              "name": "fee",
              "type": "uint256"
            }
          ],
          "internalType": "struct GameStaking.Stake",
          "name": "stake",
          "type": "tuple"
        },
        {
          "components": [
            {
              "internalType": "uint8",
              "name": "v",
              "type": "uint8"
            },
            {
              "internalType": "bytes32",
              "name": "r",
              "type": "bytes32"
            },
            {
              "internalType": "bytes32",
              "name": "s",
              "type": "bytes32"
            }
          ],
          "internalType": "struct GameStaking.Signature",
          "name": "signedMsg",
          "type": "tuple"
        },
        {
          "internalType": "bool",
          "name": "chargeFee",
          "type": "bool"
        }
      ],
      "name": "processExpiredMessage",
      "outputs": [],
      "stateMutability": "nonpayable",
      "type": "function"
    },
    {
      "inputs": [
        {
          "components": [
            {
              "internalType": "address",
              "name": "user",
              "type": "address"
            },
            {
              "internalType": "uint256",
              "name": "nonce",
              "type": "uint256"
            },
            {
              "internalType": "uint256",
              "name": "expiry",
              "type": "uint256"
            },
            {
              "internalType": "uint256",
              "name": "amount",
              "type": "uint256"
            },
            {
              "internalType": "uint256",
              "name": "fee",
              "type": "uint256"
            }
          ],
          "internalType": "struct GameStaking.Stake",
          "name": "stake1",
          "type": "tuple"
        },
        {
          "components": [
            {
              "internalType": "address",
              "name": "user",
              "type": "address"
            },
            {
              "internalType": "uint256",
              "name": "nonce",
              "type": "uint256"
            },
            {
              "internalType": "uint256",
              "name": "expiry",
              "type": "uint256"
            },
            {
              "internalType": "uint256",
              "name": "amount",
              "type": "uint256"
            },
            {
              "internalType": "uint256",
              "name": "fee",
              "type": "uint256"
            }
          ],
          "internalType": "struct GameStaking.Stake",
          "name": "stake2",
          "type": "tuple"
        },
        {
          "components": [
            {
              "internalType": "uint8",
              "name": "v",
              "type": "uint8"
            },
            {
              "internalType": "bytes32",
              "name": "r",
              "type": "bytes32"
            },
            {
              "internalType": "bytes32",
              "name": "s",
              "type": "bytes32"
            }
          ],
          "internalType": "struct GameStaking.Signature",
          "name": "signedMsg1",
          "type": "tuple"
        },
        {
          "components": [
            {
              "internalType": "uint8",
              "name": "v",
              "type": "uint8"
            },
            {
              "internalType": "bytes32",
              "name": "r",
              "type": "bytes32"
            },
            {
              "internalType": "bytes32",
              "name": "s",
              "type": "bytes32"
            }
          ],
          "internalType": "struct GameStaking.Signature",
          "name": "signedMsg2",
          "type": "tuple"
        },
        {
          "internalType": "uint256",
          "name": "matchId",
          "type": "uint256"
        },
        {
          "internalType": "address",
          "name": "winner",
          "type": "address"
        }
      ],
      "name": "processStakedMatch",
      "outputs": [],
      "stateMutability": "nonpayable",
      "type": "function"
    },
    {
      "inputs": [
        {
          "internalType": "bytes32",
          "name": "role",
          "type": "bytes32"
        },
        {
          "internalType": "address",
          "name": "callerConfirmation",
          "type": "address"
        }
      ],
      "name": "renounceRole",
      "outputs": [],
      "stateMutability": "nonpayable",
      "type": "function"
    },
    {
      "inputs": [
        {
          "internalType": "bytes32",
          "name": "role",
          "type": "bytes32"
        },
        {
          "internalType": "address",
          "name": "account",
          "type": "address"
        }
      ],
      "name": "revokeRole",
      "outputs": [],
      "stateMutability": "nonpayable",
      "type": "function"
    },
    {
      "inputs": [
        {
          "components": [
            {
              "internalType": "address",
              "name": "user",
              "type": "address"
            },
            {
              "internalType": "uint256",
              "name": "nonce",
              "type": "uint256"
            },
            {
              "internalType": "uint256",
              "name": "expiry",
              "type": "uint256"
            },
            {
              "internalType": "uint256",
              "name": "amount",
              "type": "uint256"
            },
            {
              "internalType": "uint256",
              "name": "fee",
              "type": "uint256"
            }
          ],
          "internalType": "struct GameStaking.Stake",
          "name": "stake",
          "type": "tuple"
        },
        {
          "components": [
            {
              "internalType": "uint8",
              "name": "v",
              "type": "uint8"
            },
            {
              "internalType": "bytes32",
              "name": "r",
              "type": "bytes32"
            },
            {
              "internalType": "bytes32",
              "name": "s",
              "type": "bytes32"
            }
          ],
          "internalType": "struct GameStaking.Signature",
          "name": "signedMsg",
          "type": "tuple"
        }
      ],
      "name": "stakeSignedCheck",
      "outputs": [
        {
          "internalType": "address",
          "name": "",
          "type": "address"
        }
      ],
      "stateMutability": "view",
      "type": "function"
    },
    {
      "inputs": [
        {
          "internalType": "bytes4",
          "name": "interfaceId",
          "type": "bytes4"
        }
      ],
      "name": "supportsInterface",
      "outputs": [
        {
          "internalType": "bool",
          "name": "",
          "type": "bool"
        }
      ],
      "stateMutability": "view",
      "type": "function"
    },
    {
      "inputs": [],
      "name": "token",
      "outputs": [
        {
          "internalType": "contract IERC20",
          "name": "",
          "type": "address"
        }
      ],
      "stateMutability": "view",
      "type": "function"
    },
    {
      "inputs": [
        {
          "internalType": "address",
          "name": "",
          "type": "address"
        }
      ],
      "name": "withdrawAfter",
      "outputs": [
        {
          "internalType": "uint256",
          "name": "",
          "type": "uint256"
        }
      ],
      "stateMutability": "view",
      "type": "function"
    },
    {
      "inputs": [
        {
          "components": [
            {
              "internalType": "address",
              "name": "user",
              "type": "address"
            },
            {
              "internalType": "uint256",
              "name": "nonce",
              "type": "uint256"
            },
            {
              "internalType": "uint256",
              "name": "expiry",
              "type": "uint256"
            },
            {
              "internalType": "uint256",
              "name": "fee",
              "type": "uint256"
            }
          ],
          "internalType": "struct GameStaking.Withdraw",
          "name": "withdraw",
          "type": "tuple"
        },
        {
          "components": [
            {
              "internalType": "uint8",
              "name": "v",
              "type": "uint8"
            },
            {
              "internalType": "bytes32",
              "name": "r",
              "type": "bytes32"
            },
            {
              "internalType": "bytes32",
              "name": "s",
              "type": "bytes32"
            }
          ],
          "internalType": "struct GameStaking.Signature",
          "name": "signedMsg",
          "type": "tuple"
        }
      ],
      "name": "withdrawSignedCheck",
      "outputs": [
        {
          "internalType": "address",
          "name": "",
          "type": "address"
        }
      ],
      "stateMutability": "view",
      "type": "function"
    },
    {
      "inputs": [],
      "name": "withdrawToken",
      "outputs": [],
      "stateMutability": "nonpayable",
      "type": "function"
    },
    {
      "inputs": [
        {
          "components": [
            {
              "internalType": "address",
              "name": "user",
              "type": "address"
            },
            {
              "internalType": "uint256",
              "name": "nonce",
              "type": "uint256"
            },
            {
              "internalType": "uint256",
              "name": "expiry",
              "type": "uint256"
            },
            {
              "internalType": "uint256",
              "name": "fee",
              "type": "uint256"
            }
          ],
          "internalType": "struct GameStaking.Withdraw",
          "name": "withdraw",
          "type": "tuple"
        },
        {
          "components": [
            {
              "internalType": "uint8",
              "name": "v",
              "type": "uint8"
            },
            {
              "internalType": "bytes32",
              "name": "r",
              "type": "bytes32"
            },
            {
              "internalType": "bytes32",
              "name": "s",
              "type": "bytes32"
            }
          ],
          "internalType": "struct GameStaking.Signature",
          "name": "signedMsg",
          "type": "tuple"
        }
      ],
      "name": "withdrawTokenAdmin",
      "outputs": [],
      "stateMutability": "nonpayable",
      "type": "function"
    },
    {
      "inputs": [],
      "name": "withdrawal_delay",
      "outputs": [
        {
          "internalType": "uint256",
          "name": "",
          "type": "uint256"
        }
      ],
      "stateMutability": "view",
      "type": "function"
    }
  ],
  "bytecode": {
    "object": "0x60806040523480156200001157600080fd5b506040516200290f3803806200290f833981016040819052620000349162000249565b620000416000336200019a565b50600180546001600160a01b0319166001600160a01b0385161790556002829055600381905562093a80811115620000bf5760405162461bcd60e51b815260206004820152601b60248201527f636f6e7374727563746f722f696e636f72726563742d64656c61790000000000604482015260640160405180910390fd5b5050604080518082018252600b81526a67616d657374616b696e6760a81b6020918201528151808301835260018152603160f81b9082015281517f8b73c3c69bb8fe3d512ecc4cf759cc79239f7b179b0ffacaa9a75d522b39400f818301527f77eeebd6761d41b74e74ea71209dea11d1e7e5a63388491b3123b388558e6f95818401527fc89efdaa54c0f20c7adf612882df0950f5a951637e0307cdcb4c672f298b8bc660608201524660808201523060a0808301919091528351808303909101815260c09091019092528151910120600655506200028e565b6000828152602081815260408083206001600160a01b038516845290915281205460ff166200023f576000838152602081815260408083206001600160a01b03861684529091529020805460ff19166001179055620001f63390565b6001600160a01b0316826001600160a01b0316847f2f8788117e7eff1d82e926ec794901d17c78024a50270940304540a733656f0d60405160405180910390a450600162000243565b5060005b92915050565b6000806000606084860312156200025f57600080fd5b83516001600160a01b03811681146200027757600080fd5b602085015160409095015190969495509392505050565b612671806200029e6000396000f3fe608060405234801561001057600080fd5b50600436106101a35760003560e01c80636215be77116100ee578063a217fddf11610097578063ca628c7811610071578063ca628c78146103e1578063d547741f146103e9578063eaa26f0f146103fc578063fc0c546a1461040557600080fd5b8063a217fddf146103c8578063b41c08b8146103d0578063b51d1d4f146103d957600080fd5b80637ecebe00116100c85780637ecebe001461034a57806389ee09f01461036a57806391d148541461039157600080fd5b80636215be77146102fd5780636d172b4e1461031057806376c5d7581461032357600080fd5b806327e235e31161015057806336568abe1161012a57806336568abe146102b75780634659f42a146102ca57806355b58e73146102ea57600080fd5b806327e235e31461027b5780632f2ff15d1461029b5780633644e515146102ae57600080fd5b8063138fb16711610181578063138fb167146102305780631644912c14610243578063248a9ca31461025857600080fd5b806301ffc9a7146101a857806303104c87146101d05780630acba1e514610205575b600080fd5b6101bb6101b636600461222e565b610418565b60405190151581526020015b60405180910390f35b6101f77fe36dd3d438139416652addc594300757f3bf91ccb298951da2b3fc7876a7ce1d81565b6040519081526020016101c7565b6102186102133660046123c1565b6104b1565b6040516001600160a01b0390911681526020016101c7565b61021861023e3660046123f7565b61064b565b6102566102513660046124a1565b6106c1565b005b6101f7610266366004612517565b60009081526020819052604090206001015490565b6101f7610289366004612530565b60046020526000908152604090205481565b6102566102a936600461254b565b6111c3565b6101f760065481565b6102566102c536600461254b565b6111ee565b6101f76102d8366004612530565b60056020526000908152604090205481565b6102566102f83660046123f7565b61123f565b61025661030b366004612517565b611814565b61025661031e36600461257c565b611a30565b6101f77f68ea5361ebc810ac275ae94b968cc5840b6c1e9819a403f417d5dbf871dd0caf81565b6101f7610358366004612530565b60076020526000908152604090205481565b6101f77f0596cbc5fce7ddb2133500ffdca1d36ec175960674858037bd7c9112a3b7aa4681565b6101bb61039f36600461254b565b6000918252602082815260408084206001600160a01b0393909316845291905290205460ff1690565b6101f7600081565b6101f760025481565b610256611e4e565b610256611e6d565b6102566103f736600461254b565b612023565b6101f760035481565b600154610218906001600160a01b031681565b60007fffffffff0000000000000000000000000000000000000000000000000000000082167f7965db0b0000000000000000000000000000000000000000000000000000000014806104ab57507f01ffc9a7000000000000000000000000000000000000000000000000000000007fffffffff000000000000000000000000000000000000000000000000000000008316145b92915050565b6000806006547f0596cbc5fce7ddb2133500ffdca1d36ec175960674858037bd7c9112a3b7aa4685600001518660200151876040015188606001518960800151604051602001610532969594939291909586526001600160a01b0394909416602086015260408501929092526060840152608083015260a082015260c00190565b6040516020818303038152906040528051906020012060405160200161058a9291907f190100000000000000000000000000000000000000000000000000000000000081526002810192909252602282015260420190565b604080517fffffffffffffffffffffffffffffffffffffffffffffffffffffffffffffffe08184030181528282528051602091820120865187830151888501516000875293860180865283905260ff9091169385019390935260608401929092526080830152915060019060a0016020604051602081039080840390855afa15801561061a573d6000803e3d6000fd5b50506040517fffffffffffffffffffffffffffffffffffffffffffffffffffffffffffffffe0015195945050505050565b6000806006547f68ea5361ebc810ac275ae94b968cc5840b6c1e9819a403f417d5dbf871dd0caf85600001518660200151876040015188606001516040516020016105329594939291909485526001600160a01b0393909316602085015260408401919091526060830152608082015260a00190565b7fe36dd3d438139416652addc594300757f3bf91ccb298951da2b3fc7876a7ce1d6106eb81612048565b60006006547f0596cbc5fce7ddb2133500ffdca1d36ec175960674858037bd7c9112a3b7aa4689600001518a602001518b604001518c606001518d6080015160405160200161076b969594939291909586526001600160a01b0394909416602086015260408501929092526060840152608083015260a082015260c00190565b604051602081830303815290604052805190602001206040516020016107c39291907f190100000000000000000000000000000000000000000000000000000000000081526002810192909252602282015260420190565b60405160208183030381529060405280519060200120905060006006547f0596cbc5fce7ddb2133500ffdca1d36ec175960674858037bd7c9112a3b7aa4689600001518a602001518b604001518c606001518d6080015160405160200161085b969594939291909586526001600160a01b0394909416602086015260408501929092526060840152608083015260a082015260c00190565b604051602081830303815290604052805190602001206040516020016108b39291907f190100000000000000000000000000000000000000000000000000000000000081526002810192909252602282015260420190565b604080517fffffffffffffffffffffffffffffffffffffffffffffffffffffffffffffffe081840301815282825280516020918201208a518b8301518c8501516000875293860180865288905260ff9091169385019390935260608401929092526080830152915060019060a0016020604051602081039080840390855afa158015610943573d6000803e3d6000fd5b505050602060405103516001600160a01b031689600001516001600160a01b0316146109dc5760405162461bcd60e51b815260206004820152603660248201527f70726f636573735374616b65644d617463682f7374616b65312f7369676e657260448201527f2d757365722d616464726573732d6d69736d617463680000000000000000000060648201526084015b60405180910390fd5b85516020808801516040808a015181516000815293840180835286905260ff909416908301526060820152608081019190915260019060a0016020604051602081039080840390855afa158015610a37573d6000803e3d6000fd5b505050602060405103516001600160a01b031688600001516001600160a01b031614610acb5760405162461bcd60e51b815260206004820152603660248201527f70726f636573735374616b65644d617463682f7374616b65322f7369676e657260448201527f2d757365722d616464726573732d6d69736d617463680000000000000000000060648201526084016109d3565b60408901511580610ae0575088604001514211155b610b525760405162461bcd60e51b815260206004820152602b60248201527f70726f636573735374616b65644d617463682f7374616b65312f7369676e617460448201527f7572652d6578706972656400000000000000000000000000000000000000000060648201526084016109d3565b60408801511580610b67575087604001514211155b610bd95760405162461bcd60e51b815260206004820152602b60248201527f70726f636573735374616b65644d617463682f7374616b65322f7369676e617460448201527f7572652d6578706972656400000000000000000000000000000000000000000060648201526084016109d3565b88516001600160a01b03166000908152600760205260408120805491610bfe836125f6565b91905055896020015114610c7a5760405162461bcd60e51b815260206004820152602760248201527f70726f636573735374616b65644d617463682f7374616b65312f696e76616c6960448201527f642d6e6f6e63650000000000000000000000000000000000000000000000000060648201526084016109d3565b87516001600160a01b03166000908152600760205260408120805491610c9f836125f6565b91905055886020015114610d1b5760405162461bcd60e51b815260206004820152602760248201527f70726f636573735374616b65644d617463682f7374616b65322f696e76616c6960448201527f642d6e6f6e63650000000000000000000000000000000000000000000000000060648201526084016109d3565b8760600151896060015114610d985760405162461bcd60e51b815260206004820152602960248201527f70726f636573735374616b65644d617463682f7374616b652d616d6f756e747360448201527f2d6d69736d61746368000000000000000000000000000000000000000000000060648201526084016109d3565b8760800151896080015114610e155760405162461bcd60e51b815260206004820152602760248201527f70726f636573735374616b65644d617463682f6665652d616d6f756e74732d6d60448201527f69736d617463680000000000000000000000000000000000000000000000000060648201526084016109d3565b88516001600160a01b0385811691161480610e3c575087516001600160a01b038581169116145b610eae5760405162461bcd60e51b815260206004820152602560248201527f70726f636573735374616b65644d617463682f7369676e6572732d6e6f742d7760448201527f696e6e657200000000000000000000000000000000000000000000000000000060648201526084016109d3565b606089015189516001600160a01b0316600090815260046020526040902054610ed7919061262e565b89516001600160a01b039081166000908152600460205260408082209390935560608b01518b5190921681529190912054610f12919061262e565b88516001600160a01b031660009081526004602052604081209190915560808a01516060808b0151908c0151610f489190612641565b610f52919061262e565b6001600160a01b038616600090815260046020526040902054909150610f79908290612641565b6001600160a01b038681166000908152600460208190526040918290209390935560015460808e015191517fa9059cbb00000000000000000000000000000000000000000000000000000000815233948101949094526024840191909152169063a9059cbb906044016020604051808303816000875af1158015611001573d6000803e3d6000fd5b505050506040513d601f19601f820116820180604052508101906110259190612654565b6110975760405162461bcd60e51b815260206004820152603160248201527f70726f636573735374616b65644d617463682f746f6b656e2d7472616e73666560448201527f722d746f2d61646d696e2d6661696c656400000000000000000000000000000060648201526084016109d3565b6000856001600160a01b03168b600001516001600160a01b0316146110bd5789516110c0565b8a515b6080808d0151604080516001600160a01b03808c16825285166020820152908101869052606081019190915291925088917ff1bd33fbd7e22dcda62d034ac5a7dd90af19a230047216959449188e68a3ba00910160405180910390a26001600160a01b0386166000818152600460209081526040918290205491519182527f163aa6d2d8e5248ce93dbd22509af93e5f27f8e0edc15c9e26f2867c593e0870910160405180910390a26001600160a01b0381166000818152600460209081526040918290205491519182527f163aa6d2d8e5248ce93dbd22509af93e5f27f8e0edc15c9e26f2867c593e0870910160405180910390a25050505050505050505050565b6000828152602081905260409020600101546111de81612048565b6111e88383612055565b50505050565b6001600160a01b0381163314611230576040517f6697b23200000000000000000000000000000000000000000000000000000000815260040160405180910390fd5b61123a828261211d565b505050565b7fe36dd3d438139416652addc594300757f3bf91ccb298951da2b3fc7876a7ce1d61126981612048565b60006006547f68ea5361ebc810ac275ae94b968cc5840b6c1e9819a403f417d5dbf871dd0caf85600001518660200151876040015188606001516040516020016112de9594939291909485526001600160a01b0393909316602085015260408401919091526060830152608082015260a00190565b604051602081830303815290604052805190602001206040516020016113369291907f190100000000000000000000000000000000000000000000000000000000000081526002810192909252602282015260420190565b604080517fffffffffffffffffffffffffffffffffffffffffffffffffffffffffffffffe08184030181528282528051602091820120865187830151888501516000875293860180865283905260ff9091169385019390935260608401929092526080830152915060019060a0016020604051602081039080840390855afa1580156113c6573d6000803e3d6000fd5b505050602060405103516001600160a01b031684600001516001600160a01b03161461145a5760405162461bcd60e51b815260206004820152602f60248201527f7769746864726177546f6b656e41646d696e2f7369676e65722d757365722d6160448201527f6464726573732d6d69736d61746368000000000000000000000000000000000060648201526084016109d3565b6040840151158061146f575083604001514211155b6114e05760405162461bcd60e51b8152602060048201526024808201527f7769746864726177546f6b656e41646d696e2f7369676e61747572652d65787060448201527f697265640000000000000000000000000000000000000000000000000000000060648201526084016109d3565b83516001600160a01b03166000908152600760205260408120805491611505836125f6565b9190505584602001511461155b5760405162461bcd60e51b815260206004820181905260248201527f7769746864726177546f6b656e41646d696e2f696e76616c69642d6e6f6e636560448201526064016109d3565b83516001600160a01b03908116600090815260046020818152604080842054895186168552818520859055895186168552600590925280842093909355600154606089015193517fa9059cbb0000000000000000000000000000000000000000000000000000000081529194169263a9059cbb926115f092339291016001600160a01b03929092168252602082015260400190565b6020604051808303816000875af115801561160f573d6000803e3d6000fd5b505050506040513d601f19601f820116820180604052508101906116339190612654565b6116a55760405162461bcd60e51b815260206004820152603060248201527f7769746864726177546f6b656e41646d696e2f746f6b656e2d7472616e73666560448201527f722d746f2d757365722d6661696c65640000000000000000000000000000000060648201526084016109d3565b600154855160608701516001600160a01b039092169163a9059cbb91906116cc908561262e565b6040517fffffffff0000000000000000000000000000000000000000000000000000000060e085901b1681526001600160a01b03909216600483015260248201526044016020604051808303816000875af115801561172f573d6000803e3d6000fd5b505050506040513d601f19601f820116820180604052508101906117539190612654565b6117c55760405162461bcd60e51b815260206004820152603160248201527f7769746864726177546f6b656e41646d696e2f746f6b656e2d7472616e73666560448201527f722d746f2d61646d696e2d6661696c656400000000000000000000000000000060648201526084016109d3565b84600001516001600160a01b03167f163aa6d2d8e5248ce93dbd22509af93e5f27f8e0edc15c9e26f2867c593e0870600060405161180591815260200190565b60405180910390a25050505050565b6001546040517f23b872dd000000000000000000000000000000000000000000000000000000008152336004820152306024820152604481018390526001600160a01b03909116906323b872dd906064016020604051808303816000875af1158015611884573d6000803e3d6000fd5b505050506040513d601f19601f820116820180604052508101906118a89190612654565b61191a5760405162461bcd60e51b815260206004820152602c60248201527f6465706f736974546f6b656e2f746f6b656e2d7472616e736665722d66726f6d60448201527f2d757365722d6661696c6564000000000000000000000000000000000000000060648201526084016109d3565b33600090815260046020526040902054611935908290612641565b33600090815260046020526040902081905560025410156119be5760405162461bcd60e51b815260206004820152602f60248201527f6465706f736974546f6b656e2f6465706f7369742d616d6f756e742d6578636560448201527f6564732d6d61782d62616c616e6365000000000000000000000000000000000060648201526084016109d3565b3360008181526005602090815260408083207fffffffffffffffffffffffffffffffffffffffffffffffffffffffffffffffff905560048252918290205491519182527f163aa6d2d8e5248ce93dbd22509af93e5f27f8e0edc15c9e26f2867c593e087091015b60405180910390a250565b7fe36dd3d438139416652addc594300757f3bf91ccb298951da2b3fc7876a7ce1d611a5a81612048565b60006006547f0596cbc5fce7ddb2133500ffdca1d36ec175960674858037bd7c9112a3b7aa4686600001518760200151886040015189606001518a60800151604051602001611ada969594939291909586526001600160a01b0394909416602086015260408501929092526060840152608083015260a082015260c00190565b60405160208183030381529060405280519060200120604051602001611b329291907f190100000000000000000000000000000000000000000000000000000000000081526002810192909252602282015260420190565b604080517fffffffffffffffffffffffffffffffffffffffffffffffffffffffffffffffe08184030181528282528051602091820120875188830151898501516000875293860180865283905260ff9091169385019390935260608401929092526080830152915060019060a0016020604051602081039080840390855afa158015611bc2573d6000803e3d6000fd5b505050602060405103516001600160a01b031685600001516001600160a01b031614611c565760405162461bcd60e51b815260206004820152603260248201527f70726f63657373457870697265644d6573736167652f7369676e65722d75736560448201527f722d616464726573732d6d69736d61746368000000000000000000000000000060648201526084016109d3565b84516001600160a01b03166000908152600760205260408120805491611c7b836125f6565b91905055856020015114611cf75760405162461bcd60e51b815260206004820152602360248201527f70726f63657373457870697265644d6573736167652f696e76616c69642d6e6f60448201527f6e6365000000000000000000000000000000000000000000000000000000000060648201526084016109d3565b8215611e035760015460808601516040517fa9059cbb00000000000000000000000000000000000000000000000000000000815233600482015260248101919091526001600160a01b039091169063a9059cbb906044016020604051808303816000875af1158015611d6d573d6000803e3d6000fd5b505050506040513d601f19601f82011682018060405250810190611d919190612654565b611e035760405162461bcd60e51b815260206004820152603460248201527f70726f63657373457870697265644d6573736167652f746f6b656e2d7472616e60448201527f736665722d746f2d61646d696e2d6661696c656400000000000000000000000060648201526084016109d3565b84516001600160a01b03166000818152600460209081526040918290205491519182527f163aa6d2d8e5248ce93dbd22509af93e5f27f8e0edc15c9e26f2867c593e08709101611805565b600354611e5b9042612641565b33600090815260056020526040902055565b33600090815260056020526040902054421015611ecc5760405162461bcd60e51b815260206004820152601e60248201527f7769746864726177546f6b656e2f64656c61792d696e636f6d706c657465000060448201526064016109d3565b33600081815260046020818152604080842080549085905560059092528084209390935560015492517fa9059cbb00000000000000000000000000000000000000000000000000000000815291820193909352602481018390526001600160a01b039091169063a9059cbb906044016020604051808303816000875af1158015611f5a573d6000803e3d6000fd5b505050506040513d601f19601f82011682018060405250810190611f7e9190612654565b611ff05760405162461bcd60e51b815260206004820152602b60248201527f7769746864726177546f6b656e2f746f6b656e2d7472616e736665722d746f2d60448201527f757365722d6661696c656400000000000000000000000000000000000000000060648201526084016109d3565b6040516000815233907f163aa6d2d8e5248ce93dbd22509af93e5f27f8e0edc15c9e26f2867c593e087090602001611a25565b60008281526020819052604090206001015461203e81612048565b6111e8838361211d565b61205281336121be565b50565b6000828152602081815260408083206001600160a01b038516845290915281205460ff16612115576000838152602081815260408083206001600160a01b0386168452909152902080547fffffffffffffffffffffffffffffffffffffffffffffffffffffffffffffff001660011790556120cd3390565b6001600160a01b0316826001600160a01b0316847f2f8788117e7eff1d82e926ec794901d17c78024a50270940304540a733656f0d60405160405180910390a45060016104ab565b5060006104ab565b6000828152602081815260408083206001600160a01b038516845290915281205460ff1615612115576000838152602081815260408083206001600160a01b038616808552925280832080547fffffffffffffffffffffffffffffffffffffffffffffffffffffffffffffff0016905551339286917ff6391f5c32d9c69d2a47ea670b442974b53935d1edc7fd64eb21e047a839171b9190a45060016104ab565b6000828152602081815260408083206001600160a01b038516845290915290205460ff1661222a576040517fe2517d3f0000000000000000000000000000000000000000000000000000000081526001600160a01b0382166004820152602481018390526044016109d3565b5050565b60006020828403121561224057600080fd5b81357fffffffff000000000000000000000000000000000000000000000000000000008116811461227057600080fd5b9392505050565b80356001600160a01b038116811461228e57600080fd5b919050565b600060a082840312156122a557600080fd5b60405160a0810181811067ffffffffffffffff821117156122ef577f4e487b7100000000000000000000000000000000000000000000000000000000600052604160045260246000fd5b6040529050806122fe83612277565b8152602083013560208201526040830135604082015260608301356060820152608083013560808201525092915050565b60006060828403121561234157600080fd5b6040516060810181811067ffffffffffffffff8211171561238b577f4e487b7100000000000000000000000000000000000000000000000000000000600052604160045260246000fd5b604052905080823560ff811681146123a257600080fd5b8082525060208301356020820152604083013560408201525092915050565b60008061010083850312156123d557600080fd5b6123df8484612293565b91506123ee8460a0850161232f565b90509250929050565b60008082840360e081121561240b57600080fd5b608081121561241957600080fd5b506040516080810181811067ffffffffffffffff82111715612464577f4e487b7100000000000000000000000000000000000000000000000000000000600052604160045260246000fd5b60405261247084612277565b8152602084013560208201526040840135604082015260608401356060820152809250506123ee846080850161232f565b60008060008060008061024087890312156124bb57600080fd5b6124c58888612293565b95506124d48860a08901612293565b94506124e488610140890161232f565b93506124f4886101a0890161232f565b9250610200870135915061250b6102208801612277565b90509295509295509295565b60006020828403121561252957600080fd5b5035919050565b60006020828403121561254257600080fd5b61227082612277565b6000806040838503121561255e57600080fd5b823591506123ee60208401612277565b801515811461205257600080fd5b6000806000610120848603121561259257600080fd5b61259c8585612293565b92506125ab8560a0860161232f565b91506101008401356125bc8161256e565b809150509250925092565b7f4e487b7100000000000000000000000000000000000000000000000000000000600052601160045260246000fd5b60007fffffffffffffffffffffffffffffffffffffffffffffffffffffffffffffffff8203612627576126276125c7565b5060010190565b818103818111156104ab576104ab6125c7565b808201808211156104ab576104ab6125c7565b60006020828403121561266657600080fd5b81516122708161256e56",
    "linkReferences": {}
  },
  "methodIdentifiers": {
    "DEFAULT_ADMIN_ROLE()": "a217fddf",
    "DOMAIN_SEPARATOR()": "3644e515",
    "STAKE_TYPEHASH()": "89ee09f0",
    "TXN_SUBMITTER_ROLE()": "03104c87",
    "WITHDRAW_TYPEHASH()": "76c5d758",
    "balances(address)": "27e235e3",
    "depositToken(uint256)": "6215be77",
    "getRoleAdmin(bytes32)": "248a9ca3",
    "grantRole(bytes32,address)": "2f2ff15d",
    "hasRole(bytes32,address)": "91d14854",
    "initiateWithdrawal()": "b51d1d4f",
    "max_balance()": "b41c08b8",
    "nonces(address)": "7ecebe00",
    "processExpiredMessage((address,uint256,uint256,uint256,uint256),(uint8,bytes32,bytes32),bool)": "6d172b4e",
    "processStakedMatch((address,uint256,uint256,uint256,uint256),(address,uint256,uint256,uint256,uint256),(uint8,bytes32,bytes32),(uint8,bytes32,bytes32),uint256,address)": "1644912c",
    "renounceRole(bytes32,address)": "36568abe",
    "revokeRole(bytes32,address)": "d547741f",
    "stakeSignedCheck((address,uint256,uint256,uint256,uint256),(uint8,bytes32,bytes32))": "0acba1e5",
    "supportsInterface(bytes4)": "01ffc9a7",
    "token()": "fc0c546a",
    "withdrawAfter(address)": "4659f42a",
    "withdrawSignedCheck((address,uint256,uint256,uint256),(uint8,bytes32,bytes32))": "138fb167",
    "withdrawToken()": "ca628c78",
    "withdrawTokenAdmin((address,uint256,uint256,uint256),(uint8,bytes32,bytes32))": "55b58e73",
    "withdrawal_delay()": "eaa26f0f"
  },
  "id": 0
}